:100000000C94CD020C94F5020C94F5020C94F502BC
:100010000C94F5020C94F5020C94F5020C94F50284
:100020000C94F5020C94F5020C94F5020C94F50274
:100030000C94F5020C94F5020C94F5020C94F50264
:100040000C94E90E0C94F5020C9456060C943006B0
:100050000C94F5020C94F5020C94F5020C94F50244
:100060000C940B0B0C94F502750977097B09F10AC6
:10007000F10AF10AC908F10AF10AF10AF10AF10AD2
:10008000F10AF10A7F0939093C095909F10AF10A13
:10009000F10AF10AF10AF10AF10AF10AF10AF10A88
:1000A000F10AF10AC409EB09F10AD30AF10AB40909
:1000B000AB09AED580A83FD300408D142002A1C863
:1000C000DA12817FD9F1DB40A4A6AF00000D172B17
:1000D0001000000000000000000000000000000010
:1000E00010383838FFFF38383810000000000000A2
:1000F00000030300000000000000000000000000FA
:1001000000000000000000000000000000000000EF
:10011000000000000000009078381000000000008F
:100120000000000000000000000000000000103887
:100130003838383838383810000000000000000027
:1001400000000000000000000000000000000000AF
:10015000000000000000000000000000000000009F
:10016000000000000040E0E040000000000000024D
:10017000060E0E0E0E0E0E06020000001038383865
:1001800038383838381000000080C0E0E0E0E0E0A7
:10019000E0C0800000FCFAF60E0E0E0E0E0EF6FA0F
:1001A000FC00EFC78300000000000083C7EF007F62
:1001B000BFDFE0E0E0E0E0E0DFBF7F000000000044
:1001C0000000000000F0F8FC00000000000000004B
:1001D000000083C7EF000000000000000000001FC7
:1001E0003F7F000002060E0E0E0E0E0EF6FAFC0009
:1001F000E0D0B83838383838383B170F007FBFDFC9
:10020000E0E0E0E0E0E0C08000000002060E0E0E3C
:100210000E0E0EF6FAFC0000103838383838383830
:10022000BBD7EF000080C0E0E0E0E0E0E0DFBF7FB0
:1002300000FCF8F0000000000000F0F8FC000F17D0
:100240003B383838383838BBD7EF000000000000A2
:10025000000000001F3F7F00FCFAF60E0E0E0E0E8F
:100260000E060200000F173B383838383838B8D03F
:10027000E0000080C0E0E0E0E0E0E0DFBF7F00FC05
:10028000FAF60E0E0E0E0E0E06020000EFD7BB3869
:100290003838383838B8D0E0007FBFDFE0E0E0E041
:1002A000E0E0DFBF7F000002060E0E0E0E0E0EF61F
:1002B000FAFC0000000000000000000083C7EF000F
:1002C0000000000000000000001F3F7F00FCFAF665
:1002D0000E0E0E0E0E0EF6FAFC00EFD7BB383838B5
:1002E000383838BBD7EF007FBFDFE0E0E0E0E0E088
:1002F000DFBF7F00FCFAF60E0E0E0E0E0EF6FAFCB5
:10030000000F173B383838383838BBD7EF0000803B
:10031000C0E0E0E0E0E0E0DFBF7F00000000008040
:10032000C0C08000000000000000000000010100CB
:10033000000000000000000000040E0E0400000099
:1003400000000005072060000000000000005F00C2
:10035000000003000300143E143E14242A7F2A12D6
:1003600043330866613649552250000503000000FA
:100370001C2241000041221C0014083E08140808F9
:100380003E080800503000000808080808006060B7
:10039000000020100804023E5149453E0004027F3F
:1003A00000426151494622414949361814127F10D2
:1003B00027454545393E494949320101710907360A
:1003C00049494936264949493E003636000000561B
:1003D00036000008142241001414141414004122A1
:1003E000140802015109063E4159555E7E0909096A
:1003F0007E7F494949363E414141227F4141413E4C
:100400007F494949417F090909013E4141493A7FF4
:100410000808087F00417F4100304040403F7F088E
:100420001422417F404040407F020C027F7F020443
:10043000087F3E4141413E7F090909061E212121D5
:100440005E7F09090976264949493201017F010188
:100450003F4040403F1F2040201F7F2010207F4111
:10046000221C224107087008076151494543007F5B
:1004700041000002040810200000417F0004020136
:100480000204404040404000010204002054545403
:10049000787F444444383844444444384444447F96
:1004A000385454541804047E0505085454543C7FB1
:1004B0000804047800447D40002040443D007F1043
:1004C00028440000417F40007C047804787C0804C4
:1004D000047838444444387C141414080814141460
:1004E0007C007C080404485454542004043F4444D1
:1004F0003C4040207C1C2040201C3C4030403C4480
:10050000281028440C5050503C4464544C4400087B
:1005100036414100007F00004141360800020102DF
:1005200004027F7F7F7F7F00030C0F30333C3FC08E
:10053000C3CCCFF0F3FCFFB20019804000000000F4
:1005400000240027002A0000000000250028002BBE
:100550000000000000230026002900040404040415
:100560000404040202020202020303030303030160
:100570000204081020408001020408102001020437
:10058000081020000000080002010000030407001A
:100590000000000000000000B11111241FBECFEFC9
:1005A000D4E0DEBFCDBF11E0A0E0B1E0E4EEF9E2BF
:1005B00002C005900D92A635B107D9F724E0A6E553
:1005C000B1E001C01D92A932B207E1F712E0CDEC13
:1005D000D2E004C02197FE010E94BA14CC3CD1079E
:1005E000C9F70E94330F0C94F0140C940000CF92C2
:1005F000DF92EF92FF920F931F93CF93DF936C01E3
:100600007A018B01C0E0D0E0CE15DF0581F0D80182
:100610006D918D01D601ED91FC910190F081E02D5D
:10062000C6010995892B11F02196EECF7E01C701F5
:10063000DF91CF911F910F91FF90EF90DF90CF90BE
:100640000895FC01538D448D252F30E0842F90E0D8
:10065000821B930B541710F0CF96089501970895BD
:10066000FC01918D828D981761F0828DDF01A80FBA
:10067000B11D5D968C91928D9F5F9F73928F90E0DC
:1006800008958FEF9FEF0895FC01918D828D98174B
:1006900031F0828DE80FF11D858D90E008958FEF88
:1006A0009FEF0895FC01918D228D892F90E0805C51
:1006B0009F4F821B91098F739927089588E293E0D9
:1006C0000E94520321E0892B09F420E0822F089533
:1006D000FC01848DDF01A80FB11DA35ABF4F2C91DF
:1006E000848D90E001968F739927848FA689B789AE
:1006F0002C93A089B1898C91837080648C93938DA5
:10070000848D981306C00288F389E02D80818F7D47
:1007100080830895EF92FF920F931F93CF93DF93FF
:10072000EC0181E0888F9B8D8C8D981305C0E88942
:10073000F989808185FD26C0F62E0B8D10E00F5FB4
:100740001F4F0F731127E02E8C8DE8120CC00FB6CF
:1007500007FCFACFE889F989808185FFF5CFCE01C2
:100760000E946803F1CF8B8DFE01E80FF11DE35A63
:10077000FF4FF0829FB7F8940B8FEA89FB89808145
:1007800080620AC09FB7F894EE89FF896083E88988
:10079000F98980818370806480839FBF81E090E0CD
:1007A000DF91CF911F910F91FF90EF900895CF931C
:1007B000DF93EC01888D8823C9F0EA89FB89808169
:1007C00085FD05C0A889B9898C9186FD0FC00FB63B
:1007D00007FCF5CF808185FFF2CFA889B9898C917C
:1007E00085FFEDCFCE010E946803E7CFDF91CF9167
:1007F000089580E090E0892B29F00E945E0381112A
:100800000C9400000895CF93DF93EC019C818E81BE
:10081000981758F4E881F9810084F185E02D42E0D1
:10082000CE0109958C818F5F8C83DF91CF910895E4
:1008300008958FEF9FEF08958FEF9FEF08958091B8
:100840005D0290E0919581959109089585ED8093E1
:10085000BC008091BC0084FDFCCF1092F80208958A
:1008600040913A02262F30E0240F311D213231050C
:10087000DCF42091F8022430C9F4FC0180E090E01F
:10088000861758F430913A022191DC01A65EBD4FE3
:10089000A30FB11D2C930196F3CF80913A02680FFC
:1008A00060933A0280E0089581E0089582E008951F
:1008B000CF92DF92EF92FF920F931F93CF93DF932C
:1008C0007C01CB018A012091F902222389F0EB01FE
:1008D0006B01C40ED51ECC15DD0569F06991D701F9
:1008E000ED91FC910190F081E02DC7010995F3CFC6
:1008F000642F0E943004C801DF91CF911F910F91A6
:10090000FF90EF90DF90CF900895CF93DF931F92E9
:10091000CDB7DEB769832091F9022223D1F020916F
:100920001C03203240F021E030E0FC0133832283BD
:1009300080E090E015C08091FA02E82FF0E0E550E9
:10094000FD4F998190838F5F8093FA0280931C03FF
:1009500005C061E0CE0101960E94300481E090E084
:100960000F90DF91CF910895CF93AC01FC018FEFF1
:100970009FEF9F01241B350B26173707A4F4219105
:10098000822728E030E0DC01B695A79580FF06C0FD
:10099000CD01C1E08C27C0EA9C2701C0CD012150C8
:1009A000310989F7E6CFCF91089588E293E00E945C
:1009B0005203181619062CF488E293E00E943003C3
:1009C000F4CF0895089580E090E00895FB01209110
:1009D000D0023091D1023183208320916002309186
:1009E000610233832283848335968CE0DF011D927C
:1009F0008A95E9F70895CF93DF93FC018581C2E6DC
:100A0000D2E0DE0115969C911597981309C01396B4
:100A10004D915C911497238134814217530701F162
:100A2000529692E0AE3CB90769F720E030E08D8144
:100A300081110EC082E1829FD001839FB00D1124ED
:100A4000AE59BD4F01900D928A95E1F781E009C042
:100A50002F5F3F4F62962630310549F780E001C095
:100A600082E0DF91CF9108950E94E214EF92FF920D
:100A70000F931F93CF93DF93CDB7DEB768970FB671
:100A8000F894DEBF0FBECDBF7C0188E293E00E94E8
:100A9000520303975CF188E293E00E9430030897C9
:100AA000A1F788E293E00E94300380379105F1F4CA
:100AB00088E293E00E9430038C0186E990E0A0E098
:100AC000B0E080932C0390932D03A0932E03B0935A
:100AD0002F030231110540F4B801CE0101960E94A6
:100AE000980E8017910720F40E94D50480E01AC068
:100AF00062E070E0CE0147960E94980E0297A0F344
:100B0000B801CE0101960E94B4042F89388D821756
:100B1000930751F7A801BE016F5F7F4FC7010E9485
:100B2000E71481E068960FB6F894DEBF0FBECDBF24
:100B3000DF91CF911F910F91FF90EF900895EF9269
:100B4000FF920F931F93CF93DF9300D0CDB7DEB703
:100B50007C0188E293E00E942103419754F44BE02A
:100B600050E069E371E08DE094E00E94F70280E0DC
:100B700034C061E170E0C7010E94B4049A838983A4
:100B800061E082E00E94380D00E110E0C8010197A9
:100B9000F1F743E050E060E071E088E293E00E940A
:100BA000F70241E150E0B70188E293E00E94F702CA
:100BB00042E050E0BE016F5F7F4F88E293E00E9409
:100BC000F70288E293E00E94D703C8010197F1F78A
:100BD00060E082E00E94380D81E00F900F90DF917D
:100BE000CF911F910F91FF90EF9008950F931F9356
:100BF000CF93DF93EC01062F142F8E85813120F4E3
:100C0000882329F0411103C00E94B30C1E868E85F3
:100C1000811113C08D8591E09093F90280931B039D
:100C20001092FA0210921C03112311F060E401C02B
:100C300060E085EC93E00E948504602F85EC93E0F2
:100C40000E948504123021F48E858F5F8E8703C049
:100C50000E94B30C1E86DF91CF911F910F910895D2
:100C60001F920F920FB60F9211242F933F934F9321
:100C70005F936F937F938F939F93AF93BF93EF9304
:100C8000FF9388E293E00E946803FF91EF91BF9188
:100C9000AF919F918F917F916F915F914F913F9114
:100CA0002F910F900FBE0F901F9018951F920F92CB
:100CB0000FB60F9211242F938F939F93EF93FF936F
:100CC000E0913803F09139038081E0913E03F09187
:100CD0003F0382FD12C09081809141038F5F8F732B
:100CE00020914203821751F0E0914103F0E0E85D6A
:100CF000FC4F958F8093410301C08081FF91EF915C
:100D00009F918F912F910F900FBE0F901F9018956C
:100D1000DC01ED91FC910084F185E02D40E0099427
:100D20000F931F93CF938C01FC0164838085C62FA2
:100D3000C80F6C2F6F70C8010E9488066C2F6295D7
:100D40006F706061C801CF911F910F910C9488065C
:100D50001F93CF93DF93EC01142F8E81681718F443
:100D6000CE010E9490068F818695869586951817EC
:100D700048F41D83612F606BCE01DF91CF911F91ED
:100D80000C948806DF91CF911F910895CF92DF9246
:100D9000EF92FF920F931F93CF93DF93EC01F62E08
:100DA000C42ED22E8F81869586958695081710F0D1
:100DB0000FEF080F1D2D011780F0412F6F2DCE0171
:100DC0000E94A806EF2CCE1430F060E0CE010E9405
:100DD0000304E394F8CF1F5FEECF4D2D6F2DCE01AE
:100DE000DF91CF911F910F91FF90EF90DF90CF9007
:100DF0000C94A8062F923F924F925F926F927F922F
:100E00008F929F92AF92BF92CF92DF92EF92FF921A
:100E10000F931F93CF93DF93CDB7DEB729970FB60C
:100E2000F894DEBF0FBECDBFDC011B960D911C9167
:100E30001C970115110509F465C199878887F80188
:100E4000B49131964491319644903196A491EA2E12
:100E5000F12CF7E0EF0EF11C93E0F594E7949A95EE
:100E6000E1F7EC82F801349674913196E4916717BA
:100E700058F0862F90E02E2F30E0F901E70FF11D9A
:100E80008E179F070CF471C06D3069F4A885B98581
:100E900016968C91882309F465C060E08885998551
:100EA0000E9490065FC06A3009F02CC1E885F98580
:100EB0008185D5808E9DD00C11248781869586955D
:100EC0008695D81630F08285882319F082E08287D3
:100ED000D12C4D2D60E0888599850E94A806A885B3
:100EE000B9851A968C911A97823008F43BC01596F2
:100EF0002C9115971B96ED91FC911C97309741F022
:100F00003396E49119960C91E09F002D112401C0B5
:100F100000E010E0095F1F4F83E0159507958A9563
:100F2000E1F78FEF820F080FE885F9854681415080
:100F30006481CF010E94C606A885B98519968C9157
:100F400019976D2D8E9D600D1124660F660F660F2B
:100F500017968C91861708F460E0606488859985FF
:100F60000E94880681E090E0CFC050E05B2BC80172
:100F70000696671BE885F985F185FA8342305105AD
:100F800088F4452B09F01A824E9C90014F9C300D3D
:100F90001124629F8001639F100D1124080F191FF7
:100FA000312C24C0EA2FE77021F048E0342E3E1A9D
:100FB00001C0312CA82FFC0140E050E07E2F7A1BAD
:100FC000761728F47491470F511D3196F7CFFC0125
:100FD000E60FF11D4490E49E8001E59E100DF49E05
:100FE000100D1124020F131F080F191FA885B985B2
:100FF0001496BC91BD83E885F985F581F983842D2C
:1010000090E09F838E83812C912CC12CD12CCB829C
:101010009C81C91608F063C0212C3601BFEF6B1A02
:101020007B0AE885F9858185281608F050C0FB8188
:10103000F11102C0222051F0A885B98515964C9176
:1010400015974F5F6D81CD010E94A806A12CB12C90
:10105000A41410F0B12C2FC0F401EA0DFB1DE00F19
:10106000F11F5490332061F0E614F70449F4E52DA4
:10107000F0E0032C02C0F595E7950A94E2F75E2EA6
:10108000E885F9858185823069F4E52D2110E295A6
:10109000EF70F0E0E95DFA4F5490652D88859985F1
:1010A0000E940304652D888599850E940304FFEF43
:1010B000AF1ABF0ACDCF7A817B1539F060E0888501
:1010C00099850E940304B394F6CF2394AACF8FEF9F
:1010D000C81AD80AAE81BF818A0E9B1E98CFE885B8
:1010E000F9858781869586958695F981F81708F0A8
:1010F00039CFA885B9851596FC9315976F2F606B2E
:10110000CD012ECF80E090E029960FB6F894DEBF97
:101110000FBECDBFDF91CF911F910F91FF90EF9048
:10112000DF90CF90BF90AF909F908F907F906F9007
:101130005F904F903F902F9008952F923F924F9243
:101140005F926F927F928F929F92AF92BF92CF9257
:10115000DF92EF92FF920F931F93CF93DF93CDB760
:10116000DEB72C970FB6F894DEBF0FBECDBFDC0103
:101170001496EC9114974E2F50E0FA01E258F109C1
:10118000E532F10508F02DC28C01EC5CFF4F0C94A8
:10119000BA14FC018581813A09F44BC028F48F39D7
:1011A00059F0803AB9F11BC2853A21F1863A99F09B
:1011B000833A09F014C24DC016962C9130E0A8EE87
:1011C000B3E00E9452136093D7037093D8038093C7
:1011D000D9039093DA03F801268130E0A8EEB3E05A
:1011E0000E9452136093E1037093E2038093E30340
:1011F0009093E403D80116962C9130E0A8EEB3E06A
:101200000E9452136093EB037093EC038093ED0301
:101210009093EE03F801268130E0A8EEB3E00E943F
:1012200052136093F5037093F6038093F703909342
:10123000F803D80116962C9130E0A8EEB3E00E9496
:1012400052136093FF037093000480930104909302
:101250000204F801268130E0A8EEB3E00E945213A8
:101260006093090470930A0480930B0490930C0418
:10127000B6C10E94950CB3C1DC011796EC9117978B
:10128000F0E0EE0FFF1FED5FFE4F808191819093A4
:1012900019048093180415964C91159716966C9125
:1012A0008DE094E00E94A806C80108960E94830C75
:1012B00096C1FC01458166818DE094E00E94A806FC
:1012C000F12C8F2D90E0D80117962C9130E08217E9
:1012D00093070CF084C1F801E80FF91F60858DE0D9
:1012E00094E00E940304F394ECCF83E001C082E019
:1012F0008093CF0274C181E08093CF0273C12091AB
:10130000250430912604CE0101962115310519F4EA
:101310008952944018C0AC01421B530BE091270442
:10132000F091280480E090E0309759F09C012E5F06
:101330003F4F80819181820F931F0280F381E02DC6
:10134000F3CF840F951F9A83898389819A81F8014D
:101350009683858344C18FE00E94A30DD801169621
:101360009C938E9315973BC18CE00E940F0D2091AA
:101370005E0230915F028217930709F432C19093A5
:101380005F0280935E02E3CF0E94000E80911F03F4
:101390009091200397FF03C09195819591099093B7
:1013A0001702809316020E94000E80911D039091F7
:1013B0001E03909319028093180280911602909157
:1013C0001702A0911802B0911902F8018583968343
:1013D000A783B08704C126E531E038872F833EE636
:1013E000232E31E0332E62E070E080E090E00E9436
:1013F000BA0D80917A00806480937A0080917A009F
:1014000086FDFCCF809178002091790030E0322F6A
:101410002227A901330F660B770B9A01AB01282B0A
:1014200060E070E381E190E00E949B1429873A8795
:101430004B875C8728ECE22E25E0F22ED101169630
:101440008C910E94A30DF101978B868BBC01990FA3
:10145000880B990B0E9435124B015C01D1019896C3
:101460004D905D906D907C909B97A30192010E949E
:10147000611320E030E040E85AE30E949412A30197
:1014800092010E9462139B01AC01F10160A771A758
:1014900082A793A7C501B4010E946113D101909660
:1014A0006D937D938D939C9393979B01AC010E94C8
:1014B0009412F10160AF71AF82AF93AF24AD35AD3F
:1014C00046AD57AD0E946213D101DC966D937D93BA
:1014D0008D939C93DF97B1E0EB1AF10809F0AECF42
:1014E00020E030E049EB54E40E94CE130E94461401
:1014F0004B015C01E985FA85BF01FF0F880B990B51
:101500000E94351220E030E04AE754E40E94CE13F6
:1015100020E030E040E85AE30E949412D1011C968A
:101520002D913D914D915C911F970E949412A501C0
:1015300094010E949412F1016083718382839383EA
:1015400014AE15AE16AE17AE20E030E045E653E41B
:101550000E9494126B017C0120E030E046E154E4EB
:101560000E942E12181654F023E333E343E75FE39F
:10157000C701B6010E9494126B017C01EF81F885CE
:10158000C192D192E192F192F887EF83FCE52F0EA0
:10159000311C26E232E02215330509F024CF88E021
:1015A000E6E5F1E016C0CE0101967C0186E0D701A8
:1015B0001D928A95E9F783E00E940F0DD82E84E0F2
:1015C0000E940F0D9D2D980F61F0D9828A8386E0CD
:1015D000F701D801159601900D928A95E1F781E007
:1015E00001C080E02C960FB6F894DEBF0FBECDBFD1
:1015F000DF91CF911F910F91FF90EF90DF90CF90EF
:10160000BF90AF909F908F907F906F905F904F9022
:101610003F902F9008951F920F920FB60F921124B2
:101620002F933F934F935F936F937F938F939F93EA
:10163000AF93BF93EF93FF938091B900887F80367B
:1016400009F49CC068F5883209F45BC090F48031DD
:1016500009F454C038F4882309F4F2C0883009F43E
:101660004DC0F2C0883109F44CC0803209F45DC02D
:10167000EBC0803409F468C048F4803309F455C0E5
:10168000883309F0E1C08093F602D4C0803509F4B4
:101690004FC0883509F45DC0883409F0D5C0D2C088
:1016A000883909F4C3C0A8F4883709F467C038F44E
:1016B000883609F463C0803709F460C0C5C0883833
:1016C00009F4B4C0803909F45FC0803809F0BCC0A7
:1016D0005BC0803B09F484C038F4803A09F466C0EA
:1016E000883A09F47DC0B0C0803C09F4A3C0883CAE
:1016F00009F4A0C0883B09F486C0A6C08091D3023B
:1017000010C09091F5028091F402981770F5E09165
:10171000F50281E08E0F8093F502F0E0EC52FD4F70
:1017200080818093BB0085EC82C08093F6028AC0E2
:10173000E091F50281E08E0F8093F5028091BB006D
:10174000F0E0EC52FD4F80839091F5028091F4021D
:101750006AC0E091F50281E08E0F8093F5028091DE
:10176000BB00F0E0EC52FD4F80838091F7028111C5
:1017700069C081E08093D20284EA5DC083E08093F7
:10178000F80210925C02CFCF80915C02803208F0A8
:101790004DC0E0915C0281E08E0F80935C028091ED
:1017A000BB00F0E0E45CFD4F8083BDCF85EC80930F
:1017B000BC001092F80280915C02803230F4E0911B
:1017C0005C02F0E0E45CFD4F108260915C0270E02E
:1017D0008CE392E0E0E0F0E0099510925C0234C006
:1017E00084E08093F80210923B0210923A02E0E00B
:1017F000F0E0099580913A02811105C081E0809363
:101800003A0210921A02E0913B0281E08E0F80931F
:101810003B02F0E0E65EFD4F80818093BB0090913B
:101820003B0280913A02981708F47DCF85E88093B7
:10183000BC000AC085EC8093BC001092F80204C082
:101840001092F6020E942604FF91EF91BF91AF9192
:101850009F918F917F916F915F914F913F912F91C8
:101860000F900FBE0F901F901895833081F028F4D1
:10187000813099F08230A1F008958730A9F0883046
:10188000B9F08430D1F4809180008F7D03C08091C5
:1018900080008F7780938000089584B58F7702C091
:1018A00084B58F7D84BD08958091B0008F7703C08B
:1018B0008091B0008F7D8093B00008953FB7F89479
:1018C0008091210490912204A0912304B0912404DA
:1018D00026B5A89B05C02F3F19F00196A11DB11D8B
:1018E0003FBFBA2FA92F982F8827820F911DA11DC6
:1018F000B11DBC01CD0143E0660F771F881F991F02
:101900004A95D1F70895009769F0FC0101900020F5
:10191000E9F73197AF01481B590BBC018DE094E00A
:101920000C94F70280E090E008950F930091140466
:10193000069506950695015040911304415020E00C
:1019400060E08DE094E00E94C60681E0909117046B
:10195000911101C080E08093170460E48DE094E071
:101960000F910C94880630911C03313208F04BC063
:101970008091F8028111FCCF90911B0322E020930B
:10198000F80221E02093F7022FEF2093F602109245
:10199000F5023093F402EBEFF2E0A4EDB2E020E0C8
:1019A000321721F041914D932F5FFACF1092D3025D
:1019B0002091D302990F922B9093D3029091D2024F
:1019C000913061F41092D2029091D3029093BB00B7
:1019D0009091BC0093FDF8CF95EC01C095EE9093EB
:1019E000BC009091F8029230E1F39091F6029F3F93
:1019F00079F08091F602803241F08091F6028033D6
:101A000031F084E005C081E003C082E001C083E0E2
:101A10001092FA0210921C031092F9020895CF93CB
:101A2000DF93282F30E0F901ED57FA4F8491F90147
:101A3000E159FA4FD491F901E55AFA4FC491CC23F8
:101A400091F081110E94350CEC2FF0E0EE0FFF1F9A
:101A5000EF5AFA4FA591B491EC91ED2381E090E01B
:101A600021F480E002C080E090E0DF91CF91089502
:101A70001F93CF93DF93282F30E0F901ED57FA4FF2
:101A80008491F901E159FA4FD491F901E55AFA4FDD
:101A9000C491CC23C1F0162F81110E94350CEC2F7C
:101AA000F0E0EE0FFF1FE95BFA4FA591B4919FB7ED
:101AB000F894111104C08C91D095D82302C0EC91F8
:101AC000DE2BDC939FBFDF91CF911F910895CF93C1
:101AD000DF9390E0FC01E159FA4F2491FC01E55AB3
:101AE000FA4F8491882361F190E0880F991FFC01DF
:101AF000E35CFA4FC591D491FC01E95BFA4FA591E3
:101B0000B491611109C09FB7F89488812095822310
:101B10008883EC912E230BC0623061F49FB7F89458
:101B20008881322F309583238883EC912E2B2C9340
:101B30009FBF06C08FB7F894E8812E2B28838FBFF4
:101B4000DF91CF9108958E3008F08E5087708064B9
:101B500080937C0080917A00806480937A008091E9
:101B60007A0086FDFCCF809178002091790090E08A
:101B7000922B08958F929F92AF92BF92CF92DF9255
:101B8000EF92FF926B017C010E945E0C4B015C01A5
:101B9000C114D104E104F104F1F00E945E0CDC01F7
:101BA000CB0188199909AA09BB09883E9340A10570
:101BB000B10570F321E0C21AD108E108F10888EEFE
:101BC000880E83E0981EA11CB11CC114D104E1044D
:101BD000F10419F7DDCFFF90EF90DF90CF90BF9029
:101BE000AF909F908F9008952FB7F89460911D0447
:101BF00070911E0480911F04909120042FBF0895BE
:101C0000CF92DF92EF92FF920F931F93CF93DF93C8
:101C10000E94F40D009124031091250320912603C6
:101C2000309127036B017C01C01AD10AE20AF30A42
:101C30004FECC41647E0D406E104F10408F46FC089
:101C400060932403709325038093260390932703C6
:101C500060E0809121030E94380D61E080912103B2
:101C60000E94670D8CE396E00197F1F760E08091A8
:101C700021030E94670D61E0809121030E94380DCD
:101C80001DEF0E945E0CE62E812F8170F82EC82E6B
:101C9000880FDD080E945E0C062F0E190B3518F018
:101CA00081E090E033C0809121030E940F0D8C15DC
:101CB0009D0581F317FD07C0FF2029F0CC0FDD1F24
:101CC0000F3108F0C1601F3149F01F3359F4D09330
:101CD0002003C0931F03C0E0D0E004C0D0931E03D4
:101CE000C0931D031F5F103561F630911D032091D5
:101CF0001E0380911F0390912003830F820F890F91
:101D000090E08C179D0739F082E090E090932303D8
:101D10008093220304C01092230310922203DF91C8
:101D2000CF911F910F91FF90EF90DF90CF9008958A
:101D30008F929F92AF92BF92EF92FF920F931F9359
:101D4000CF93DF938B017C01C0E0D0E0C017D107B7
:101D5000A1F10E94F40D60933003709331038093DE
:101D600032039093330388E293E00E94300397FF9D
:101D70001FC00E94F40D8090300390903103A0901A
:101D80003203B0903303DC01CB0188199909AA0909
:101D9000BB0980902C0390902D03A0902E03B0904F
:101DA0002F0388159905AA05BB05E8F28E0105C029
:101DB000F70181937F012196C9CFC801DF91CF91AF
:101DC0001F910F91FF90EF90BF90AF909F908F90D9
:101DD00008951F920F920FB60F9211242F933F93E5
:101DE0008F939F93AF93BF9380911D0490911E0496
:101DF000A0911F04B091200430911C0426E0230F11
:101E00002D3720F40296A11DB11D05C029E8230F2E
:101E10000396A11DB11D20931C0480931D04909373
:101E20001E04A0931F04B09320048091210490917C
:101E30002204A0912304B09124040196A11DB11D98
:101E40008093210490932204A0932304B09324044C
:101E5000BF91AF919F918F913F912F910F900FBEA6
:101E60000F901F901895CF93DF93CDB7DEB7A39750
:101E70000FB6F894DEBF0FBECDBF789484B58260F4
:101E800084BD84B5816084BD85B5826085BD85B51E
:101E9000816085BD80916E00816080936E0010929C
:101EA0008100809181008260809381008091810017
:101EB00081608093810080918000816080938000A8
:101EC0008091B10084608093B1008091B000816006
:101ED0008093B00080917A00846080937A00809132
:101EE0007A00826080937A0080917A008E7F80935E
:101EF0007A0080917A00806880937A001092C10005
:101F0000E0913803F091390382E08083E09134035B
:101F1000F09135031082E0913603F091370389E1A7
:101F2000808310924003E0913C03F0913D0386E0F2
:101F30008083E0913A03F0913B038081806180834C
:101F4000E0913A03F0913B03808188608083E091C7
:101F50003A03F0913B03808180688083E0913A03EB
:101F6000F0913B0380818F7D808361E082E00E945D
:101F7000670D81E090E0909361028093600210927F
:101F80001B048CE380931A04109211041092120423
:101F9000E7E3F5E085919491D82EE9E3F5E0F4903C
:101FA000EAE3F5E0E491E0931304EBE3F5E0E49178
:101FB000E0931404ECE3F5E0E491E09315048C0164
:101FC000802F8D198F1548F4F80164918DE094E00D
:101FD0000E9488060F5F1F4FF3CF109217040E94D4
:101FE000950C82E08093B8000E94950C60E08DE033
:101FF0000E94670D60E08CE00E94670D60E08FE05A
:102000000E94670D8DE0809321030E94F40DDC0196
:10201000CB01885B9B40A109B10980932403909375
:102020002503A0932603B09327038CE6E2E6F2E0B3
:10203000DF011D928A95E9F710925F0210925E020D
:102040008FE98093D10386EA8093DB0385EA80934E
:10205000E50380EA8093EF0380E197E2A0E0B0E03F
:102060008093F5039093F603A093F703B093F803DE
:1020700081EA8093F90383EA8093030484EF91E07B
:10208000A0E0B0E08093090490930A04A0930B04AD
:10209000B0930C04EEEFFFE32591859190E0982F2B
:1020A0008827820F911D9093D1028093D0021092C5
:1020B000CF0242E1F42ECE0143960E9436058823DA
:1020C00061F12D893E898091D0029091D10228172B
:1020D000390739F00E94D50466E970E080E090E0AD
:1020E00005C18091CF02811103C081E08093CF02AE
:1020F0006AE070E080E090E00E94BA0DCE01439665
:102100000E949D08BE016D5E7F4F8F890E94E6048C
:10211000CE0143960E949F05EBC08091CF02813093
:1021200009F457C0C0F0823009F4CEC0833009F002
:10213000DFC00FB6F894A895809160008861809305
:102140006000109260000FBE14BEF894F894E0E0B6
:10215000FEE30994CDC0BE016D5E7F4F80E80E9412
:10216000E604CE0143960E949F0581E493E090939C
:1021700019048093180444E06EE18DE094E00E941D
:10218000A80685E491E00E94830C44E06AE58DE0B6
:1021900094E00E94A8068091CE02813029F483E564
:1021A00091E00E94830C09C0823039F482E591E00D
:1021B0000E94830C8FEF8093CE0268EE73E080E084
:1021C00090E00E94BA0D8091CE028F5F8093CE0284
:1021D0008FC001ED13E08DE0C82E84E0D82EF80109
:1021E0008081882369F186819781A085B185892BBB
:1021F0008A2B8B2B29F10E94F40DD80112968D9019
:102200009D90AD90BC901597DC01CB018819990980
:10221000AA09BB09F80186809780A084B18488163A
:102220009906AA06BB0660F4BE016D5E7F4F8081F1
:102230000E94E604CE0143960E949D0881115BC076
:10224000065F1F4FC016D10651F6E2E6F2E080E0CD
:1022500090E025812223F1F0F89E9001F99E300D47
:102260001124C9018E599D4FFC01DE0111962F2DBD
:1022700001900D922A95E1F7DC01EF2D1D92EA9570
:10228000E9F7CE0102960E949F050E94F40D4B01D2
:102290005C0113C00196729686309105D1F628C074
:1022A0000E94F40DDC01CB0188199909AA09BB0928
:1022B00086399105A105B105B0F5CE0102960E94BF
:1022C0003605811130C0ECCF61E082E00E94380D0C
:1022D00061E070E080E090E00E94BA0D60E082E092
:1022E0000E94380D64EF71E080E090E00E94BA0D2A
:1022F0000E94F903E0CE81E1FE017396DE011296A1
:1023000001900D928A95E1F7CE0101960E94FB049F
:10231000882309F495CF0E94F40DF801628373833A
:10232000848395838DCF2C813D818091D0029091C3
:10233000D1022817390709F488CF66E970E080E0F8
:1023400090E00E94BA0D0E94D504898191E0980F17
:102350009983843008F079CFCE0101960E94FB0466
:1023600074CFCF93DF9310922B0310922A0388EE41
:1023700093E0A0E0B0E080932C0390932D03A09312
:102380002E03B0932F032BE031E0309329032093E9
:10239000280325EC30E0309335032093340324ECFC
:1023A00030E0309337032093360320EC30E0309355
:1023B00039032093380321EC30E030933B03209322
:1023C0003A0322EC30E030933D0320933C0326ECAB
:1023D00030E030933F0320933E031092410310926C
:1023E000420310924303109244031092C8031092C8
:1023F000C7038093C9039093CA03A093CB03B09300
:10240000CC038DE191E09093C6038093C5031092B5
:10241000100410920F0481E08093160410921904A6
:10242000109218048FE291E090930E0480930D04B3
:10243000C1EDD3E0188219820E94F40D6A837B8378
:102440008C839D831E821F82188619862A9684E0BB
:10245000CD30D80779F7DF91CF9108950E9470129F
:1024600008F481E00895E89409C097FB3EF4909544
:102470008095709561957F4F8F4F9F4F9923A9F05D
:10248000F92F96E9BB279395F695879577956795EC
:10249000B795F111F8CFFAF4BB0F11F460FF1BC030
:1024A0006F5F7F4F8F4F9F4F16C0882311F096E9C3
:1024B00011C0772321F09EE8872F762F05C0662371
:1024C00071F096E8862F70E060E02AF09A95660F2A
:1024D000771F881FDAF7880F9695879597F90895E3
:1024E000990F0008550FAA0BE0E8FEEF1616170625
:1024F000E807F907C0F012161306E407F50798F08D
:10250000621B730B840B950B39F40A2661F0232BA5
:10251000242B252B21F408950A2609F4A140A69521
:102520008FEF811D811D08950E94A7120C9418132E
:102530000E940A1338F00E94111320F0952311F025
:102540000C9401130C94071311240C944C130E9447
:10255000291370F3959FC1F3950F50E0551F629FAB
:10256000F001729FBB27F00DB11D639FAA27F00DEC
:10257000B11DAA1F649F6627B00DA11D661F829F13
:102580002227B00DA11D621F739FB00DA11D621FF8
:10259000839FA00D611D221F749F3327A00D611D15
:1025A000231F849F600D211D822F762F6A2F1124F7
:1025B0009F5750409AF0F1F088234AF0EE0FFF1F2A
:1025C000BB1F661F771F881F91505040A9F79E3F81
:1025D000510580F00C9401130C944C135F3FE4F30D
:1025E000983ED4F3869577956795B795F795E795D7
:1025F0009F5FC1F7FE2B880F911D9695879597F9E0
:10260000089597F99F6780E870E060E008959FEF74
:1026100080EC089500240A94161617061806090679
:10262000089500240A941216130614060506089548
:10263000092E0394000C11F4882352F0BB0F40F4D0
:10264000BF2B11F460FF04C06F5F7F4F8F4F9F4F10
:10265000089557FD9058440F551F59F05F3F71F092
:102660004795880F97FB991F61F09F3F79F08795F9
:102670000895121613061406551FF2CF4695F1DF82
:1026800008C0161617061806991FF1CF8695710512
:10269000610508940895E894BB2766277727CB0146
:1026A00097F90895A29FB001B39FC001A39F700D39
:1026B000811D1124911DB29F700D811D1124911D4A
:1026C00008955058BB27AA270E9479130C94181319
:1026D0000E940A1338F00E94111320F039F49F3F32
:1026E00019F426F40C9407130EF4E095E7FB0C9410
:1026F0000113E92F0E94291358F3BA1762077307D1
:102700008407950720F079F4A6F50C944B130EF48A
:10271000E0950B2EBA2FA02D0B01B90190010C01F1
:10272000CA01A0011124FF27591B99F0593F50F409
:10273000503E68F11A16F040A22F232F342F442761
:10274000585FF3CF469537952795A795F040539559
:10275000C9F77EF41F16BA0B620B730B840BBAF029
:102760009150A1F0FF0FBB1F661F771F881FC2F794
:102770000EC0BA0F621F731F841F48F487957795A8
:102780006795B795F7959E3F08F0B0CF9395880F62
:1027900008F09927EE0F9795879508950E94E21308
:1027A0000C9418130E94111358F00E940A1340F061
:1027B00029F45F3F29F00C94011351110C944C1330
:1027C0000C9407130E94291368F39923B1F355233E
:1027D00091F3951B550BBB27AA2762177307840734
:1027E00038F09F5F5F4F220F331F441FAA1FA9F3CA
:1027F00035D00E2E3AF0E0E832D091505040E695B8
:10280000001CCAF72BD0FE2F29D0660F771F881F18
:10281000BB1F261737074807AB07B0E809F0BB0B0B
:10282000802DBF01FF2793585F4F3AF09E3F51051F
:1028300078F00C9401130C944C135F3FE4F3983E32
:10284000D4F3869577956795B795F7959F5FC9F708
:10285000880F911D9695879597F90895E1E0660F89
:10286000771F881FBB1F621773078407BA0720F002
:10287000621B730B840BBA0BEE1F88F7E09508956B
:1028800019F416F40C9407130C9486140E94311357
:10289000B8F39923C9F3B6F39F57550B87FF0E94EE
:1028A00094140024A0E640EA90018058569597952C
:1028B00028F4805C660F771F881F20F026173707E3
:1028C000480730F4621B730B840B202931294A2BF3
:1028D000A69517940794202531254A2758F7660FA7
:1028E000771F881F20F026173707480730F4620B40
:1028F000730B840B200D311D411DA09581F7B9018B
:10290000842F9158880F9695879508959F3F31F0B1
:10291000915020F4879577956795B795880F911D0D
:102920009695879597F9089591505040660F771FB7
:10293000881FD2F70895052E97FB1EF400940E947D
:10294000B21457FD07D00E94C01407FC03D04EF408
:102950000C94B21450954095309521953F4F4F4FB0
:102960005F4F089590958095709561957F4F8F4F3B
:102970009F4F0895EE0FFF1F0590F491E02D0994ED
:10298000A1E21A2EAA1BBB1BFD010DC0AA1FBB1F73
:10299000EE1FFF1FA217B307E407F50720F0A21BE5
:1029A000B30BE40BF50B661F771F881F991F1A9452
:1029B00069F760957095809590959B01AC01BD017C
:1029C000CF01089581E090E0F8940C94F014FB019D
:1029D000DC0102C001900D9241505040D8F708959B
:0429E000F894FFCF99
:1029E4000870114103CB00000000008A03F70221A4
:1029F40003D7035203300344030000000085045846
:102A040004E30418041F041C04190400000000FA61
:102A140006F702E304E204F60546756C6C20627561
:102A24006666657200436F6E6E656374696E6720D7
:062A340020002E2E000020
:00000001FF
