:100000000C94BA020C94E2020C94E2020C94E20208
:100010000C94E2020C94E2020C94E2020C94E202D0
:100020000C94E2020C94E2020C94E2020C94E202C0
:100030000C94E2020C94E2020C94E2020C94E202B0
:100040000C948C0E0C94E2020C9470080C944A08E8
:100050000C94E2020C94E2020C94E2020C94E20290
:100060000C94BF0A0C94E202C310C510C710CA104A
:10007000CA10CA102710CA10CA10CA10CA10CA1053
:10008000CA10CA10CA108E109110A810AED580A840
:100090003FD300408D142002A1C8DA12817FD9F12C
:1000A000DB40A4A6AF00000D172B100000000000DD
:1000B0000000000000000000000010383838FFFF8A
:1000C0003838381000000000000000030300000072
:1000D0000000000000000000000000000000000020
:1000E0000000000000000000000000000000000010
:1000F00000907838100000000000000000000000B0
:100100000000000000000000103838383838383857
:100110003810000000000000000000000000000097
:1001200000000000000000000000000000000000CF
:10013000000000000000000000000000000000407F
:10014000E0E04000000000000002060E0E0E0E0E61
:100150000E060200000010383838383838383810A9
:1001600000000080C0E0E0E0E0E0E0C0800000FCD3
:10017000FAF60E0E0E0E0E0EF6FAFC00EFC7830016
:10018000000000000083C7EF007FBFDFE0E0E0E099
:10019000E0E0DFBF7F00000000000000000000F092
:1001A000F8FC0000000000000000000083C7EF0022
:1001B0000000000000000000001F3F7F000002065A
:1001C0000E0E0E0E0E0EF6FAFC00E0D0B8383838DF
:1001D0003838383B170F007FBFDFE0E0E0E0E0E0B9
:1001E000C08000000002060E0E0E0E0E0EF6FAFC87
:1001F00000001038383838383838BBD7EF00008066
:10020000C0E0E0E0E0E0E0DFBF7F00FCF8F00000ED
:1002100000000000F0F8FC000F173B383838383881
:1002200038BBD7EF000000000000000000001F3FB7
:100230007F00FCFAF60E0E0E0E0E0E060200000FE8
:10024000173B383838383838B8D0E0000080C0E084
:10025000E0E0E0E0E0DFBF7F00FCFAF60E0E0E0EFD
:100260000E0E06020000EFD7BB383838383838B8E1
:10027000D0E0007FBFDFE0E0E0E0E0E0DFBF7F0054
:100280000002060E0E0E0E0E0EF6FAFC0000000026
:1002900000000000000083C7EF0000000000000025
:1002A0000000001F3F7F00FCFAF60E0E0E0E0E0E31
:1002B000F6FAFC00EFD7BB383838383838BBD7EF00
:1002C000007FBFDFE0E0E0E0E0E0DFBF7F00FCFABE
:1002D000F60E0E0E0E0E0EF6FAFC000F173B383817
:1002E00038383838BBD7EF000080C0E0E0E0E0E00D
:1002F000E0DFBF7F000000000080C0C08000000081
:1003000000000000000000010100000000000000EB
:10031000000000040E0E040000000000000507208D
:1003200060000000000000005F0000000300030008
:10033000143E143E14242A7F2A1243330866613681
:10034000495522500005030000001C2241000041D5
:10035000221C0014083E081408083E08080050300B
:100360000000080808080800606000002010080469
:10037000023E5149453E0004027F00426151494618
:1003800022414949361814127F1027454545393E08
:100390004949493201017109073649494936264917
:1003A00049493E0036360000005636000008142247
:1003B00041001414141414004122140802015109BC
:1003C000063E4159555E7E0909097E7F49494936F5
:1003D0003E414141227F4141413E7F494949417F60
:1003E000090909013E4141493A7F0808087F004157
:1003F0007F4100304040403F7F081422417F404011
:1004000040407F020C027F7F0204087F3E41414151
:100410003E7F090909061E2121215E7F090909760F
:10042000264949493201017F01013F4040403F1FB9
:100430002040201F7F2010207F41221C22410708DE
:100440007008076151494543007F410000020408DC
:1004500010200000417F000402010204404040409F
:1004600040000102040020545454787F444444382E
:100470003844444444384444447F38545454180461
:10048000047E0505085454543C7F08040478004455
:100490007D40002040443D007F1028440000417F03
:1004A00040007C047804787C080404783844444490
:1004B000387C14141408081414147C007C080404F8
:1004C000485454542004043F44443C4040207C1C85
:1004D0002040201C3C4030403C44281028440C5014
:1004E00050503C4464544C44000836414100007F65
:1004F0000000414136080002010204027F7F7F7F35
:100500007F00030C0F30333C3FC0C3CCCFF0F3FC73
:10051000FF8C001980400000000000240027002A02
:100520000000000000250028002B00000000002330
:100530000026002900040404040404040402020246
:100540000202020303030303030102040810204014
:10055000800102040810200102040810200000009D
:100560000800020100000304070000000000000072
:100570000000BE1111241FBECFEFD4E0DEBFCDBFFF
:1005800011E0A0E0B1E0EEEFF9E202C005900D92BB
:10059000A435B107D9F724E0A4E5B1E001C01D926C
:1005A000AD32B207E1F712E0CAEBD2E004C0219706
:1005B000FE010E945A12C93BD107C9F70E94D60E0C
:1005C0000C94FD140C940000CF92DF92EF92FF92F6
:1005D0000F931F93CF93DF936C017A018B01C0E0DF
:1005E000D0E0CE15DF0589F0D8016D918D01D601DF
:1005F000ED91FC910190F081E02DC6010995892BC8
:1006000011F47E0102C02196ECCFC701DF91CF919A
:100610001F910F91FF90EF90DF90CF900895FC0114
:10062000918D828D981761F0828DDF01A80FB11D29
:100630005D968C91928D9F5F9F73928F90E008954D
:100640008FEF9FEF0895FC01918D828D981731F007
:10065000828DE80FF11D858D90E008958FEF9FEF5B
:100660000895FC01918D228D892F90E0805C9F4F31
:10067000821B91098F73992708958CE293E00E9461
:10068000310321E0892B09F420E0822F0895FC0139
:10069000848DDF01A80FB11DA35ABF4F2C91848D0B
:1006A00090E001968F739927848FA689B7892C9340
:1006B000A089B1898C9180648C93938D848D9813DB
:1006C00006C00288F389E02D80818F7D80830895A4
:1006D000EF92FF920F931F93CF93DF93EC0181E092
:1006E000888F9B8D8C8D981305C0E889F98980814E
:1006F00085FD24C0F62E0B8D10E00F5F1F4F0F738A
:100700001127E02E8C8DE8120CC00FB607FCFACF33
:10071000E889F989808185FFF5CFCE010E944703E2
:10072000F1CF8B8DFE01E80FF11DE35AFF4FF082F0
:100730000B8FEA89FB898081806207C0EE89FF897F
:100740006083E889F98980818064808381E090E01A
:10075000DF91CF911F910F91FF90EF900895CF936C
:10076000DF93EC01888D8823C9F0EA89FB898081B9
:1007700085FD05C0A889B9898C9186FD0FC00FB68B
:1007800007FCF5CF808185FFF2CFA889B9898C91CC
:1007900085FFEDCFCE010E944703E7CFDF91CF91D8
:1007A000089580E090E0892B29F00E943D0381119B
:1007B0000C9400000895CF93DF93EC019C818E810F
:1007C000981758F4E881F9810480F581E02D42E022
:1007D000CE0109958C818F5F8C83DF91CF91089535
:1007E00008958FEF9FEF08958FEF9FEF0895809109
:1007F000610290E0919581959109089585ED80932E
:10080000BC008091BC0084FDFCCF1092FC020895D6
:1008100040913C02262F30E0240F311D213231055A
:10082000DCF42091FC022430C9F4FC0180E090E06B
:10083000861758F430913C022191DC01A65EBD4F31
:10084000A30FB11D2C930196F3CF80913C02680F4A
:1008500060933C0280E0089581E0089582E008956D
:10086000CF92DF92EF92FF920F931F93CF93DF937C
:100870007C01262F972F8A018091FD02882391F019
:10088000C62FD72F6E01C40ED51ECC15DD0571F015
:100890006991D701ED91FC910190F081E02DC701A4
:1008A0000995F3CF642F822F0E940804C801DF91BD
:1008B000CF911F910F91FF90EF90DF90CF9008950F
:1008C000CF93DF931F92CDB7DEB769832091FD02EE
:1008D0002223D1F020912003203240F021E030E0AB
:1008E000FC013383228380E090E015C08091FE02FA
:1008F000E82FF0E0E150FD4F998190838F5F809366
:10090000FE028093200305C061E0CE0101960E94A3
:10091000080481E090E00F90DF91CF910895CF938C
:10092000AC01FC018FEF9FEF9F01241B350B2617B5
:100930003707A4F42191822728E030E0DC01B69546
:10094000A79580FF06C0CD01C1E08C27C0EA9C2797
:1009500001C0CD012150310989F7E6CFCF9108952B
:10096000FC01858120E030E0D901AA59BD4F1596E0
:100970009C911597981309C013966D917C911497CB
:10098000438154816417750711F12E5E3F4F2C3659
:10099000310551F7ABE6B2E020E030E08C918111F7
:1009A0000EC082E1829FD001839FB00D1124AA590D
:1009B000BD4F01900D928A95E1F781E008952F5F78
:1009C0003F4F52962630310549F780E0089582E086
:1009D00008958CE293E00E943103181619062CF456
:1009E0008CE293E00E940F03F4CF0895EF92FF9200
:1009F0000F931F93CF93DF9300D0CDB7DEB77C0169
:100A00005091470340914803852F90E0242F30E018
:100A1000281B390B541718F0215C3F4F02C021509E
:100A200031092131310534F487E391E00E943B0C18
:100A300080E034C061E170E0C7010E948F049A83B6
:100A4000898361E082E00E94F10C00E110E0C801BE
:100A50000197F1F743E050E066E071E08CE293E04B
:100A60000E94E40241E150E0B7018CE293E00E9471
:100A7000E40242E050E0BE016F5F7F4F8CE293E002
:100A80000E94E4028CE293E00E94AF03C801019748
:100A9000F1F760E082E00E94F10C81E00F900F908E
:100AA000DF91CF911F910F91FF90EF9008950E94D9
:100AB000BC138F929F92AF92BF92CF92DF92EF9230
:100AC000FF920F931F93CF93DF93CDB7DEB7689755
:100AD0000FB6F894DEBF0FBECDBF4C018CE293E0A1
:100AE0000E94310303970CF445C08CE293E00E940E
:100AF0000F03089799F78CE293E00E940F03803769
:100B00009105C1F58CE293E00E940F038C0184E60D
:100B100090E0A0E0B0E08093300390933103A09385
:100B20003203B09333030231110510F5CE01019663
:100B30006C01E12CF12CB82EAD2CE016F10679F009
:100B40000E94520E97FF04C0E016F10688F007C01D
:100B5000F60181936F01FFEFEF1AFF0AEECF0E94BB
:100B6000520E97FD05C08F8B0E94520E97FF04C056
:100B70000E94E90480E012C0888FEF88F88CB801E9
:100B80008B2D9A2D0E948F04E816F90689F7A8018B
:100B90006B2D7A2DC4010E94C11381E068960FB6B7
:100BA000F894DEBF0FBECDBFDF91CF911F910F91A3
:100BB000FF90EF90DF90CF90BF90AF909F908F907D
:100BC0000895CF92DF92EF92FF92CF93DF93EC01E3
:100BD0000E94F6040E94AE0D6B017C01CE010E94C2
:100BE000590581110DC00E94AE0DDC01CB018C199D
:100BF0009D09AE09BF0984369105A105B10570F3C1
:100C00002A813B818091D4029091D502281739071F
:100C100051F064E670E080E090E00E94740D0E9464
:100C2000E90480E001C081E0DF91CF91FF90EF9077
:100C3000DF90CF9008952F923F924F925F926F92E4
:100C40007F928F929F92AF92BF92CF92DF92EF925C
:100C5000FF920F931F93CF93DF93CDB7DEB72E97FD
:100C60000FB6F894DEBF0FBECDBFFB012091D402BA
:100C70003091D50231832083209164023091650246
:100C80003383228384838B010B5F1F4F9CE0D80149
:100C90001D929A95E9F7843990F4813908F0A4C13E
:100CA000853838F4823808F09FC1803809F49CC137
:100CB0009DC1883809F498C1803939F197C1788786
:100CC0006F83833A09F475C188F4803A09F460C0EF
:100CD000813A09F08BC124E531E03A8729873CE568
:100CE000232E31E0332E0CE811E07AC0853AD1F1A1
:100CF000863A09F07BC18FE00E945D0D9093190246
:100D000080931802EF81F8852AC020912904309140
:100D10002A04CE0101962115310519F48D52944013
:100D20001AC0AC01421B530BA0912B04B0912C04B0
:100D300080E090E0109769F09C012E5F3F4F8D910D
:100D40009C911197820F931F12960D90BC91A02D2C
:100D5000F1CF840F951F9A83898389819A81968325
:100D6000858342C18CE00E94C80C209162023091C0
:100D700063028217930709F439C190936302809349
:100D80006202AF81B88516969C938E9315972CC1FD
:100D90000E94BA0D809123039091240397FF03C012
:100DA00091958195910990931502809314020E9468
:100DB000BA0D8091210390912203909317028093A2
:100DC00016028091140290911502A0911602B09122
:100DD0001702EF81F88585839683A783B08704C1C6
:100DE00062E070E080E090E00E94740D80917A00F3
:100DF000806480937A0080917A0086FDFCCF809198
:100E000078002091790030E0322F2227A901330F9A
:100E1000660B770B9A01AB01282B60E070E381E150
:100E200090E00E943B122B873C874D875E8728EC21
:100E3000E22E25E0F22ED10156968C910E945D0D96
:100E4000F10197A386A3BC01990F880B990B0E940F
:100E5000D1134B015C01D80118964D905D906D90B7
:100E60007C901B97A30192010E94821220E030E047
:100E700040E85AE30E9430149B01AC01C301B20167
:100E80000E9483129B01AC01F80160877187828701
:100E90009387C501B4010E948212D8016D937D939E
:100EA0008D939C9313979B01AC010E943014F80121
:100EB000608F718F828F938F248D358D468D578DE6
:100EC0000E948312D8015C966D937D938D939C93C1
:100ED0005F97B1E0EB1AF10809F0ADCF20E030E008
:100EE00049EB54E40E94EF120E9467134B015C012E
:100EF000EB85FC85BF01FF0F880B990B0E94D11376
:100F000020E030E04AE754E40E94EF1220E030E0B5
:100F100040E85AE30E943014D1015C962D913D9136
:100F20004D915C915F970E943014A50194010E943D
:100F30003014F101608B718B828B938BD8015C969E
:100F40001D921D921D921C925F9720E030E045E6B5
:100F500053E40E9430146B017C0120E030E046E154
:100F600054E40E94CA13181654F023E333E343E712
:100F70005FE3C701B6010E9430146B017C01E98573
:100F8000FA85C192D192E192F192FA87E987FCE564
:100F90002F0E311C045A1F4F24E1221622E0320684
:100FA00009F01ECF88E0E4E5F1E0AF81B885159641
:100FB00017C0CE0101967C0186E0D7011D928A956B
:100FC000E9F783E00E94C80CD82E84E00E94C80C88
:100FD0009D2D980F59F0D9828A8386E0F701D801B8
:100FE00001900D928A95E1F781E001C080E02E9694
:100FF0000FB6F894DEBF0FBECDBFDF91CF911F912A
:101000000F91FF90EF90DF90CF90BF90AF909F90A7
:101010008F907F906F905F904F903F902F900895AA
:101020000F931F93CF93DF93EC01062F142F8E8520
:10103000813120F4882329F0411103C00E946B0CF8
:101040001E868E85811113C08D8591E09093FD02DF
:1010500080931F031092FE0210922003112311F0BF
:1010600060E401C060E089EC93E00E946004602FBE
:1010700089EC93E00E946004123021F48E858F5F2A
:101080008E8703C00E946B0C1E86DF91CF911F914B
:101090000F9108951F920F920FB60F9211242F9364
:1010A0003F934F935F936F937F938F939F93AF93F0
:1010B000BF93EF93FF938CE293E00E944703FF916D
:1010C000EF91BF91AF919F918F917F916F915F91C0
:1010D0004F913F912F910F900FBE0F901F90189539
:1010E0001F920F920FB60F9211242F938F939F93FD
:1010F000EF93FF93E0913C03F0913D038081E091F9
:101100004203F091430382FD12C090818091450318
:101110008F5F8F7320914603821751F0E091450352
:10112000F0E0E45DFC4F958F8093450301C0808122
:10113000FF91EF919F918F912F910F900FBE0F9084
:101140001F901895DC01ED91FC910480F581E02D54
:1011500040E009940F931F93CF938C01FC016483AB
:101160009085C62FC90F6C2F6F70C8010E94A2080E
:101170006C2F62956F706061C801CF911F910F91C4
:101180000C94A2080F931F93CF93DF931F92CDB7B8
:10119000DEB78C01FC018681681728F4C8014983F9
:1011A0000E94AA084981F8018781869586958695CF
:1011B000481758F44583642F606BC8010F90DF9186
:1011C000CF911F910F910C94A2080F90DF91CF91B6
:1011D0001F910F910895CF92DF92EF92FF920F939C
:1011E0001F93CF93DF93EC01F62EC42ED22E8F8166
:1011F000869586958695081710F00FEF080F1D2D20
:10120000011780F0412F6F2DCE010E94C208EF2CF4
:10121000CE1430F060E0CE010E94DB03E394F8CFFF
:101220001F5FEECF4D2D6F2DCE01DF91CF911F911E
:101230000F91FF90EF90DF90CF900C94C2082F9207
:101240003F924F925F926F927F928F929F92AF9256
:10125000BF92CF92DF92EF92FF920F931F93CF93A3
:10126000DF93CDB7DEB727970FB6F894DEBF0FBE7A
:10127000CDBFDC011B960D911C911C97011511052A
:1012800009F462C19F838E83F801B4913196449131
:10129000319654903196A491EA2EF12CF7E0EF0E9E
:1012A000F11C23E0F594E7942A95E1F7EB82F8012D
:1012B000349674913196E491671758F0862F90E038
:1012C0002E2F30E0F901E70FF11D8E179F070CF468
:1012D00073C06D3069F4AE81BF8116968C918823FE
:1012E00009F467C060E08E819F810E94AA0861C0F6
:1012F0006A3009F029C1EE81FF8181856581D62E92
:101300008E9DD00C11248781869586958695D8165A
:1013100030F08285882319F082E08287D12C4D2D10
:1013200060E08E819F810E94C208AE81BF811A96C3
:101330008C911A97823008F43CC015962C91159721
:101340001B96ED91FC911C97309741F03396E491F8
:1013500019960C91E09FE02D112401C0E0E08FEF81
:10136000820F0E2F10E0095F1F4F93E01595079530
:101370009A95E1F7080FEE81FF8146814150648123
:10138000CF010E94EB08AE81BF8119968C9119970D
:101390006D2D8E9D600D1124660F660F660F1796DA
:1013A0008C91861708F460E060648E819F810E94B2
:1013B000A20881E090E0CAC050E05B2BC80106960D
:1013C000671BEE81FF81F185F9834230510588F476
:1013D000452B09F019825E9C90015F9C300D112411
:1013E000629F8001639F100D1124080F191F412C6B
:1013F00024C0EA2FE77021F048E0442E4E1A01C0C5
:10140000412CA82FFC0140E050E07E2F7A1B76177C
:1014100028F47491470F511D3196F7CFFC01E60F68
:10142000F11D54904E9D80014F9D100D5E9D100D3D
:101430001124020F131F080F191FAE81BF811496CC
:10144000BC91BC83EE81FF813580652C712CCC244E
:10145000C394D12C812C912C7FEF7C0D7A838B81CE
:10146000781708F05FC0212CAE81BF8119968C914E
:10147000281608F051C07A81711102C0222051F063
:10148000AE81BF8115964C9115974F5F6C81CD0150
:101490000E94C208A12CB12CA51488F5F501E80D15
:1014A000F91DE00FF11F2491442061F0CE14DF04F8
:1014B00049F4E22FF0E0042C02C0F595E7950A9478
:1014C000E2F72E2FEE81FF818185823079F4E22FC1
:1014D0002110E295EF70F0E0EF5FFA4F2491622F58
:1014E0008E819F812D830E94DB032D81622F8E814F
:1014F0009F810E94DB03FFEFAF1ABF0ACDCFB12C53
:101500007981B71639F060E08E819F810E94DB03FC
:10151000B394F6CF2394A8CF860C971CBFEFCB1AB9
:10152000DB0A9ACFAE81BF8117968C91179786956B
:1015300086958695381608F03CCF15963C921597FF
:10154000632D606BCD0133CF80E090E027960FB61E
:10155000F894DEBF0FBECDBFDF91CF911F910F91E9
:10156000FF90EF90DF90CF90BF90AF909F908F90C3
:101570007F906F905F904F903F902F9008951F92B3
:101580000F920FB60F9211242F933F934F935F93B7
:101590006F937F938F939F93AF93BF93EF93FF933B
:1015A0008091B900887F803609F49CC068F5883244
:1015B00009F45BC090F4803109F454C038F48823F6
:1015C00009F4F6C0883009F44DC0F6C0883109F43A
:1015D0004CC0803209F45DC0EFC0803409F468C0AB
:1015E00048F4803309F455C0883309F0E5C080938E
:1015F000FA02D8C0803509F44FC0883509F45DC0BF
:10160000883409F0D9C0D6C0883909F4C7C0A8F415
:10161000883709F467C038F4883609F463C0803726
:1016200009F460C0C9C0883809F4B8C0803909F429
:101630005FC0803809F0C0C05BC0803B09F486C041
:1016400038F4803A09F466C0883A09F47FC0B4C01F
:10165000803C09F4A7C0883C09F4A4C0883B09F485
:101660008AC0AAC08091D70210C09091F9028091DF
:10167000F802981770F5E091F90281E08E0F8093DF
:10168000F902F0E0E852FD4F80818093BB0085ECC9
:1016900086C08093FA028EC0E091F90281E08E0F3D
:1016A0008093F9028091BB00F0E0E852FD4F808307
:1016B0009091F9028091F8026EC0E091F90281E008
:1016C0008E0F8093F9028091BB00F0E0E852FD4F4D
:1016D00080838091FB0281116DC081E08093D602EE
:1016E00084EA61C083E08093FC0210926002CFCF55
:1016F00080916002803208F051C0E091600281E088
:101700008E0F809360028091BB00F0E0E05CFD4FA3
:101710008083BDCF85EC8093BC001092FC02809149
:101720006002803230F4E0916002F0E0E05CFD4F56
:1017300010826091600270E0E0913E02F0913F0201
:1017400080E492E009951092600236C084E08093B4
:10175000FC0210923D0210923C02E0913A02F0919C
:101760003B02099580913C02811105C081E0809384
:101770003C0210921A02E0913D0281E08E0F8093AC
:101780003D02F0E0E65EFD4F80818093BB009091CA
:101790003D0280913C02981708F479CF85E8809348
:1017A000BC000AC085EC8093BC001092FC0204C00F
:1017B0001092FA020E94FE03FF91EF91BF91AF9148
:1017C0009F918F917F916F915F914F913F912F9159
:1017D0000F900FBE0F901F901895833081F028F462
:1017E000813099F08230A1F008958730A9F08830D7
:1017F000B9F08430D1F4809180008F7D03C0809156
:1018000080008F7780938000089584B58F7702C021
:1018100084B58F7D84BD08958091B0008F7703C01B
:101820008091B0008F7D8093B00008953FB7F89409
:101830008091250490912604A0912704B09128045A
:1018400026B5A89B05C02F3F19F00196A11DB11D1B
:101850003FBFBA2FA92F982F8827820F911DA11D56
:10186000B11DBC01CD0143E0660F771F881F991F92
:101870004A95D1F70895009769F0FC010190002086
:10188000E9F73197AF01481B590BBC0181E194E0A6
:101890000C94E40280E090E008950F930091180406
:1018A000069506950695015040911704415020E099
:1018B00060E081E194E00E94EB0881E090911B04DC
:1018C000911101C080E080931B0460E481E194E009
:1018D0000F910C94A2082091200390911F032132B4
:1018E00008F04AC08091FC028111FCCF32E03093B5
:1018F000FC0231E03093FB023FEF3093FA0210928A
:10190000F9022093F802AFEFB2E048ED52E0FA019D
:101910003E2F341B321718F43D913193F9CF1092BA
:10192000D7022091D702990F922B9093D7029091D2
:10193000D602913061F41092D6029091D702909322
:10194000BB009091BC0093FDF8CF95EC01C095EEE3
:101950009093BC009091FC029230E1F39091FA02D6
:101960009F3F79F08091FA02803241F08091FA0233
:10197000803331F084E005C081E003C082E001C023
:1019800083E01092FE02109220031092FD0208954F
:10199000CF93DF93282F30E0F901E35AFA4F849177
:1019A000F901E75BFA4FD491F901EB5CFA4FC4916E
:1019B000CC2391F081110E94ED0BEC2FF0E0EE0FA3
:1019C000FF1FE55DFA4FA591B491EC91ED2381E005
:1019D00090E021F480E002C080E090E0DF91CF91C0
:1019E00008951F93CF93DF93282F30E0F901E35A36
:1019F000FA4F8491F901E75BFA4FD491F901EB5C5E
:101A0000FA4FC491CC23C9F0162F81110E94ED0B1F
:101A1000EC2FF0E0EE0FFF1FEF5DFA4FA591B491B0
:101A20008FB7F894111105C09C91ED2FE095E92333
:101A300002C0EC91ED2BEC938FBFDF91CF911F9102
:101A40000895CF93DF9390E0FC01E75BFA4F249178
:101A5000FC01EB5CFA4F8491882361F190E0880FE0
:101A6000991FFC01E95EFA4FC591D491FC01EF5D2D
:101A7000FA4FA591B491611109C09FB7F89488817C
:101A8000209582238883EC912E230BC0623061F471
:101A90009FB7F8943881822F809583238883EC91B7
:101AA0002E2B2C939FBF06C08FB7F894E8812E2B66
:101AB00028838FBFDF91CF9108958E3008F08E502C
:101AC0008770806480937C0080917A00806480932A
:101AD0007A0080917A0086FDFCCF80917800209179
:101AE000790090E0922B08958F929F92AF92BF92CF
:101AF000CF92DF92EF92FF926B017C010E94160C55
:101B00004B015C01C114D104E104F104F1F00E9425
:101B1000160CDC01CB0188199909AA09BB09883E7A
:101B20009340A105B10570F321E0C21AD108E10884
:101B3000F10888EE880E83E0981EA11CB11CC11428
:101B4000D104E104F10419F7DDCFFF90EF90DF90AD
:101B5000CF90BF90AF909F908F9008952FB7F8943B
:101B600060912104709122048091230490912404B7
:101B70002FBF0895CF92DF92EF92FF920F931F93A2
:101B8000CF93DF930E94AE0D00912803109129039B
:101B900020912A0330912B036B017C01C01AD10ADA
:101BA000E20AF30A4FECC41647E0D406E104F1045C
:101BB00008F46FC0609328037093290380932A036D
:101BC00090932B0360E0809125030E94F10C61E06B
:101BD000809125030E94210D8CE396E00197F1F797
:101BE00060E0809125030E94210D61E08091250332
:101BF0000E94F10C1DEF0E94160CE62E812F8170C1
:101C0000F82EC82E880FDD080E94160C062F0E191C
:101C10000B3518F081E090E033C0809125030E94DD
:101C2000C80C8C159D0581F317FD07C0FF2029F016
:101C3000CC0FDD1F0F3108F0C1601F3149F01F3399
:101C400059F4D0932403C0932303C0E0D0E004C030
:101C5000D0932203C09321031F5F103561F680915A
:101C60002103209122033091230390912403830FB9
:101C7000820F890F90E08C179D0739F082E090E089
:101C8000909327038093260304C010922703109299
:101C90002603DF91CF911F910F91FF90EF90DF907E
:101CA000CF9008950F931F930E94AE0D609334035D
:101CB000709335038093360390933703E0912C03A0
:101CC000F0912D030680F781E02D8CE293E00995D9
:101CD00097FF1FC00E94AE0D009134031091350391
:101CE0002091360330913703DC01CB01801B910B2F
:101CF000A20BB30B009130031091310320913203FA
:101D00003091330380179107A207B307B8F28FEF22
:101D10009FEF1F910F9108951F920F920FB60F9290
:101D200011242F933F938F939F93AF93BF938091F1
:101D3000210490912204A0912304B09124043091B5
:101D4000200426E0230F2D3720F40296A11DB11D9B
:101D500005C029E8230F0396A11DB11D209320047F
:101D60008093210490932204A0932304B09324042D
:101D70008091250490912604A0912704B091280415
:101D80000196A11DB11D8093250490932604A09374
:101D90002704B0932804BF91AF919F918F913F91F9
:101DA0002F910F900FBE0F901F901895CF93DF9338
:101DB000CDB7DEB7A3970FB6F894DEBF0FBECDBF89
:101DC000789484B5826084BD84B5816084BD85B516
:101DD000826085BD85B5816085BD80916E00816022
:101DE00080936E00109281008091810082608093C8
:101DF00081008091810081608093810080918000CA
:101E00008160809380008091B10084608093B100F4
:101E10008091B00081608093B00080917A008460EE
:101E200080937A0080917A00826080937A0080911A
:101E30007A008E7F80937A0080917A008068809308
:101E40007A001092C100E0913C03F0913D0382E0E2
:101E50008083E0913803F09139031082E0913A03D6
:101E6000F0913B0389E1808310924403E0914003A9
:101E7000F091410386E08083E0913E03F0913F03BF
:101E8000808180618083E0913E03F0913F038081F7
:101E900088608083E0913E03F0913F0380818068F9
:101EA0008083E0913E03F0913F0380818F7D8083AA
:101EB00061E082E00E94210D81E090E09093650254
:101EC0008093640210921F048CE380931E0410928E
:101ED000150410921604E1E1F5E085919491B82E75
:101EE000E3E1F5E0F490E4E1F5E0E491E093170438
:101EF000E5E1F5E0E491E0931804E6E1F5E0E49132
:101F0000E09319048C01802F8B198F1548F4F80188
:101F1000649181E194E00E94A2080F5F1F4FF3CF0C
:101F200010921B040E944D0C82E08093B8000E9426
:101F30004D0C60E08DE00E94210D60E08CE00E947D
:101F4000210D60E08FE00E94210D8DE0809325033C
:101F50000E94AE0DDC01CB01885B9B40A109B10959
:101F60008093280390932903A0932A03B0932B0313
:101F700010926302109262028FE98093D50386EA81
:101F80008093DF0385EA8093E90380EA8093F3037B
:101F900080E197E2A0E0B0E08093F9039093FA0328
:101FA000A093FB03B093FC0381EA8093FD0383EAD3
:101FB0008093070484EF91E0A0E0B0E080930D04EB
:101FC00090930E04A0930F04B0931004EEEFFFE380
:101FD0002591859190E0982F8827820F911D9093ED
:101FE000D5028093D4021092D302CE0143960E9470
:101FF0005905882309F4D9C02D893E898091D402DE
:102000009091D5022817390739F00E94E90464E657
:1020100070E080E090E095C18091D302811103C00F
:1020200081E08093D3026AE070E080E090E00E945B
:10203000740DEF898E2F90E0FC01E258F109E23136
:10204000F10508F0A7C0EC5CFF4F0C945A12888D84
:10205000813A09F446C028F48F3959F0803A99F151
:1020600099C0853A11F1863A91F0833A09F092C00D
:1020700046C0298D30E0A8EEB3E00E94EE146093D4
:10208000DB037093DC038093DD039093DE03298DE3
:1020900030E0A8EEB3E00E94EE146093E503709385
:1020A000E6038093E7039093E803298D30E0A8EEE0
:1020B000B3E00E94EE146093EF037093F0038093FB
:1020C000F1039093F203298D30E0A8EEB3E00E9473
:1020D000EE146093F9037093FA038093FB039093DB
:1020E000FC03298D30E0A8EEB3E00E94EE1460936B
:1020F0000304709304048093050490930604298DCF
:1021000030E0A8EEB3E00E94EE1460930D047093EB
:102110000E0480930F04909310043CC00E944D0C59
:1021200039C0EA8DF0E0EE0FFF1FE75FFE4F8081C0
:10213000918190931D0480931C04488D698D81E1E9
:1021400094E00E94C208CE014B960E943B0C22C034
:10215000488D698D81E194E00E94C20810E0812FD2
:1021600090E02A8D30E082179307A4F4EBE1F0E0D1
:10217000EC0FFD1FE80FF91F608181E194E00E94E0
:10218000DB031F5FECCF83E003C082E001C081E08E
:102190008093D302BE016D5E7F4F8F890E941B0624
:1021A000CE0143960E94F604CEC08091D3028130C6
:1021B00009F44CC068F0823009F4B1C0833009F0F2
:1021C000C2C014BEF894F894E0E0FEE30994BBC0EA
:1021D000BE016D5E7F4F80E80E941B06CE014396D4
:1021E0000E94E1058BE193E090931D0480931C0411
:1021F00044E06EE181E194E00E94C20883E491E052
:102200000E943B0C44E06AE581E194E00E94C20830
:102210008091D202813029F481E591E00E943B0C4B
:1022200009C0823039F480E591E00E943B0C8FEFC9
:102230008093D20264EF71E080E090E00E94740D20
:102240008091D2028F5F8093D2027DC005ED13E0B2
:1022500081E1F82EF8018081882339F18681978108
:10226000A085B185892B8A2B8B2BF9F00E94AE0DAE
:10227000F80182809380A480B580DC01CB018819AD
:102280009909AA09BB0986809780A084B184881621
:102290009906AA06BB0648F4BE016D5E7F4FF801A1
:1022A00080810E941B06811151C0065F1F4FF4E020
:1022B00001311F0779F612E1EBE6F2E080E090E0F1
:1022C0002081222331F1189F9001199F300D112494
:1022D000C9018A599D4FFC01DE011196212F019001
:1022E0000D922A95E1F7FC01212F11922A95E9F729
:1022F000CE0102960E94E1058111DECF898191E035
:10230000980F99838430C0F6CE0101960E94B004E4
:10231000D3CF019672968630910591F614C061E094
:1023200082E00E94F10C61E070E080E090E00E94A9
:10233000740D60E082E00E94F10C64EF71E080E0D7
:1023400090E00E94740D0E94D1034FCEFE0173965F
:10235000DE0112968F2D01900D928A95E1F7CE0144
:1023600001960E94B004882309F49FCF0E94AE0D0D
:10237000F801628373838483958397CFCF93DF9330
:1023800010922F0310922E0388EE93E0A0E0B0E0AD
:102390008093300390933103A0933203B0933303BF
:1023A00021E131E030932D0320932C0325EC30E024
:1023B000309339032093380324EC30E030933B030F
:1023C00020933A0320EC30E030933D0320933C030C
:1023D00021EC30E030933F0320933E0322EC30E0C9
:1023E000309341032093400326EC30E030934303C5
:1023F0002093420310924503109246031092470324
:10240000109248031092CC031092CB038093CD031B
:102410009093CE03A093CF03B093D00381E291E0D9
:102420009093CA038093C90310921404109213046A
:1024300081E080931A0410921D0410921C0481E321
:1024400091E09093120480931104C5EDD3E01882BB
:1024500019820E94AE0D6A837B838C839D831E82CA
:102460001F82188619862A9684E0C131D80779F729
:10247000DF91CF910895052E97FB1EF400940E94E2
:10248000521257FD07D00E94601207FC03D04EF491
:102490000C94521250954095309521953F4F4F4FD7
:1024A0005F4F089590958095709561957F4F8F4F00
:1024B0009F4F0895EE0FFF1F0590F491E02D0994B2
:1024C000A1E21A2EAA1BBB1BFD010DC0AA1FBB1F38
:1024D000EE1FFF1FA217B307E407F50720F0A21BAA
:1024E000B30BE40BF50B661F771F881F991F1A9417
:1024F00069F760957095809590959B01AC01BD0141
:10250000CF0108955058BB27AA270E949A120C9415
:10251000B4140E94A61438F00E94AD1420F039F4CF
:102520009F3F19F426F40C94A3140EF4E095E7FBF6
:102530000C949D14E92F0E94C51458F3BA17620732
:1025400073078407950720F079F4A6F50C94E71437
:102550000EF4E0950B2EBA2FA02D0B01B9019001BE
:102560000C01CA01A0011124FF27591B99F0593F02
:1025700050F4503E68F11A16F040A22F232F342F4A
:102580004427585FF3CF469537952795A795F04098
:102590005395C9F77EF41F16BA0B620B730B840BAD
:1025A000BAF09150A1F0FF0FBB1F661F771F881F65
:1025B000C2F70EC0BA0F621F731F841F48F48795BD
:1025C00077956795B795F7959E3F08F0B0CF9395AF
:1025D000880F08F09927EE0F9795879508950E9428
:1025E00003130C94B4140E94AD1458F00E94A61466
:1025F00040F029F45F3F29F00C949D1451110C9484
:10260000E8140C94A3140E94C51468F39923B1F341
:10261000552391F3951B550BBB27AA276217730708
:10262000840738F09F5F5F4F220F331F441FAA1F9C
:10263000A9F335D00E2E3AF0E0E832D09150504058
:10264000E695001CCAF72BD0FE2F29D0660F771F06
:10265000881FBB1F261737074807AB07B0E809F0EC
:10266000BB0B802DBF01FF2793585F4F3AF09E3F71
:10267000510578F00C949D140C94E8145F3FE4F33A
:10268000983ED4F3869577956795B795F7959F5FB4
:10269000C9F7880F911D9695879597F90895E1E000
:1026A000660F771F881FBB1F621773078407BA075F
:1026B00020F0621B730B840BBA0BEE1F88F7E095BA
:1026C000089519F416F40C94A3140C94A7130E9403
:1026D000CD14B8F39923C9F3B6F39F57550B87FF71
:1026E0000E94B5130024A0E640EA90018058569558
:1026F000979528F4805C660F771F881F20F02617B7
:102700003707480730F4621B730B840B20293129EB
:102710004A2BA69517940794202531254A2758F768
:10272000660F771F881F20F026173707480730F4F9
:10273000620B730B840B200D311D411DA09581F799
:10274000B901842F9158880F9695879508959F3FDA
:1027500031F0915020F4879577956795B795880F5C
:10276000911D9695879597F9089591505040660F61
:10277000771F881FD2F7089581E090E0F8940C94B9
:10278000FD14FB01DC0102C001900D92415050404C
:10279000D8F708950E940C1408F481E00895E89495
:1027A00009C097FB3EF490958095709561957F4F99
:1027B0008F4F9F4F9923A9F0F92F96E9BB27939547
:1027C000F695879577956795B795F111F8CFFAF457
:1027D000BB0F11F460FF1BC06F5F7F4F8F4F9F4F88
:1027E00016C0882311F096E911C0772321F09EE8E6
:1027F000872F762F05C0662371F096E8862F70E04C
:1028000060E02AF09A95660F771F881FDAF7880F25
:102810009695879597F90895990F0008550FAA0B7B
:10282000E0E8FEEF16161706E807F907C0F01216E3
:102830001306E407F50798F0621B730B840B950BE6
:1028400039F40A2661F0232B242B252B21F408953B
:102850000A2609F4A140A6958FEF811D811D0895D8
:102860000E9443140C94B4140E94A61438F00E94E1
:10287000AD1420F0952311F00C949D140C94A31426
:1028800011240C94E8140E94C51470F3959FC1F3B1
:10289000950F50E0551F629FF001729FBB27F00D0E
:1028A000B11D639FAA27F00DB11DAA1F649F662763
:1028B000B00DA11D661F829F2227B00DA11D621FB2
:1028C000739FB00DA11D621F839FA00D611D221F6C
:1028D000749F3327A00D611D231F849F600D211D50
:1028E000822F762F6A2F11249F5750409AF0F1F0D3
:1028F00088234AF0EE0FFF1FBB1F661F771F881F3C
:1029000091505040A9F79E3F510580F00C949D14C2
:102910000C94E8145F3FE4F3983ED4F386957795E2
:102920006795B795F795E7959F5FC1F7FE2B880FE1
:10293000911D9695879597F9089597F99F6780E877
:1029400070E060E008959FEF80EC089500240A9401
:102950001616170618060906089500240A9412167A
:102960001306140605060895092E0394000C11F4AD
:10297000882352F0BB0F40F4BF2B11F460FF04C05A
:102980006F5F7F4F8F4F9F4F089557FD9058440FB3
:10299000551F59F05F3F71F04795880F97FB991FBE
:1029A00061F09F3F79F0879508951216130614067B
:1029B000551FF2CF4695F1DF08C016161706180608
:1029C000991FF1CF86957105610508940895E894E3
:1029D000BB2766277727CB0197F90895A29FB001FF
:1029E000B39FC001A39F700D811D1124911DB29F43
:0E29F000700D811D1124911D0895F894FFCFE4
:1029FE0000002D0480000870111B03A500000000CC
:102A0E00006803E40231030F032303AF0300000049
:102A1E000060043004F703F403F103F00300000038
:102A2E00001F09E402100846756C6C20627566661C
:102A3E00657200436F6E6E656374696E6720200069
:042A4E002E2E000028
:00000001FF
