:103D8E0021E0A0E0B1E001C01D92A230B207E1F740
:103D9E0010926600112484B714BE982F9D7009F0FE
:103DAE00F1D085E08093810082E08093C00088E1AD
:103DBE008093C10086E08093C20089E18093C400A5
:103DCE0088E991E0EDD0019629F461E070E088E990
:103DDE0091E0EBD088E2C1D0529A5A98529A8AE07A
:103DEE0028E13EEF91E0309385002093840096BB4E
:103DFE00B09BFECF4A9AA8958150A9F7C0E0D0E0BB
:103E0E0093E0F92EEE24E39425E0D22E31E1C32E79
:103E1E0098D08134B9F495D0182FA5D0123879F0F6
:103E2E00113811F487E00CC0123919F489E991E0C8
:103E3E0004C0133921F488E991E0AAD001C083E0CF
:103E4E0070D06CC0823411F483E103C0853419F450
:103E5E0084E091D063C0853541F473D0C82F71D002
:103E6E00D0E0D82BCC0FDD1F58C0863521F484E06E
:103E7E0082D080E0E5CF843609F032C062D061D0C6
:103E8E00B82E5FD0A82E00E011E05BD0F801819330
:103E9E008F01BE12FACF67D0F5E4AF1201C0FFCF8B
:103EAE00FE01F7BEE89507B600FCFDCFFE01A0E0CF
:103EBE00B1E08C9111962C91119790E0922B0C0100
:103ECE00E7BEE895112432961296BA12F2CFFE0191
:103EDE00D7BEE89507B600FCFDCFC7BEE8951EC05D
:103EEE00843771F42ED02DD0B82E2BD03CD08E012D
:103EFE00F80185918F0115D0BA94B110F9CF0EC08B
:103F0E00853739F430D08EE10CD084E90AD086E0C2
:103F1E0097CF813511F488E020D025D080E101D0F3
:103F2E0077CF9091C00095FFFCCF90649093C00026
:103F3E005A9A8093C6008091C00086FFFCCF5A9893
:103F4E0008958091C00087FFFCCF8091C00084FD52
:103F5E0001C0A8958091C6000895E0E6F0E098E1D2
:103F6E00908380830895EDDF803219F088E0F5DFCD
:103F7E00FFCF84E1D6CFCF93C82FE3DFC150E9F74F
:103F8E00CF91F1CF282E80E0E8DFE0E0FF27099403
:103F9E00F999FECF92BD81BDF89A992780B5089503
:103FAE00A8E1B0E042E050E005C012D0272F11C0CA
:103FBE00DC01CB01FC01F999FECF06C0F2BDE1BDDB
:103FCE00F89A319600B40D9241505040B8F70895CA
:103FDE00262FF999FECF1FBA92BD81BD20BD0FB617
:0C3FEE00F894FA9AF99A0FBE0196089513
:023FFE000307B7
:0400000300003D8E2E
:00000001FF
