:103E0000112484B714BE982F9D7009F0E4D085E08A
:103E10008093810082E08093C00088E18093C1009C
:103E200086E08093C20089E18093C40088E2BED01E
:103E3000529A5A98529A86E028E13EEF91E03093E8
:103E400085002093840096BBB09BFECF4A9AA8952C
:103E50008150A9F7C0E0D0E093E0F92EEE24E3947E
:103E600025E0D22E31E1C32E95D08134A1F492D039
:103E7000182FA2D0123851F0113811F487E009C080
:103E8000123911F481E005C0133911F482E001C048
:103E900083E070D06CC0823411F483E103C08534B8
:103EA00019F484E091D063C0853541F473D0C82FF4
:103EB00071D0D0E0D82BCC0FDD1F58C0863521F44F
:103EC00084E082D080E0E5CF843609F032C062D051
:103ED00061D0B82E5FD0A82E00E011E05BD0F801D1
:103EE00081938F01BE12FACF67D0F5E4AF1201C003
:103EF000FFCFFE01F7BEE89507B600FCFDCFFE013F
:103F0000A0E0B1E08C9111962C91119790E0922B4A
:103F10000C01E7BEE895112432961296BA12F2CF40
:103F2000FE01D7BEE89507B600FCFDCFC7BEE895F9
:103F30001EC0843771F42ED02DD0B82E2BD03CD09B
:103F40008E01F80185918F0115D0BA94B110F9CF87
:103F50000EC0853739F430D08EE10CD084E90AD018
:103F600086E097CF813511F488E020D025D080E11C
:103F700001D07ACF9091C00095FFFCCF90649093D0
:103F8000C0005A9A8093C6008091C00086FFFCCF83
:103F90005A9808958091C00087FFFCCF8091C0009F
:103FA00084FD01C0A8958091C6000895E0E6F0E088
:103FB00098E1908380830895EDDF803219F088E0E6
:103FC000F5DFFFCF84E1D6CFCF93C82FE3DFC15019
:103FD000E9F7CF91F1CF282E80E0E8DFE0E0FF277E
:023FE000099442
:043FFC0002070201B5
:0400000300003E00BB
:00000001FF
